:020000040000FA
:1000000055EF00F0EA6A090EE96EEF500EE0010EBE
:10001000016E006A002EFED7012EFBD74A0E006E3D
:10002000002EFED700D0EF2EF2D7000C82A005D014
:10003000030E066E010E076E0DD0C282C2B2FED74D
:10004000C450990804E2020E066E076A03D0010E3E
:10005000066E076A000CC69E9E9608C0C9FF020E77
:10006000C6BE05D09EA6FED7000EC5BC010E016E11
:10007000000CA00E056E0550DF0816E3C580C5B064
:10008000FED705C008F0E7DF06C008F0E4DFC5844E
:10009000C5B4FED7020E086EFA0E096EB3DF082E45
:1000A000FBD7100E0526E7D7000CF86AD09EEA6A47
:1000B000E96A93829380010EC86E280EC66EC79EB1
:1000C000C79CC150C00B0F09C16E070EB46E010E64
:1000D000066E076AC150C00BC16EC080C092C0944A
:1000E000C09EC280000E016EC250C30B0110C26ED2
:1000F000020E086EFA0E096E85DF082EFBD7620E1F
:10010000D36E010E946EFF0E956E83A010D083A265
:100110000ED083A40CD083A60AD083A808D083AACB
:1001200006D083AC04D083AE02D0075224E083A073
:1001300010D083B20ED083A40CD083B60AD083A88B
:1001400008D083BA06D083AC04D083BE02D0075255
:1001500012E083A072D083A270D083A46ED083B645
:100160006CD083B86AD083BA68D083AC66D083BEC3
:1001700064D0075262E15ADF94988B88949A8B8AF4
:1001800078DF040E086EE60E096E3CDF082EFBD702
:10019000949A8B9AFA0E096E35DF949A8B8AFA0E2E
:1001A000096E30DF949A8B9AFA0E096E2BDF949ABF
:1001B0008B8AFA0E096E26DF949A8B9A949C8B8C0C
:1001C000050E086E820E096E1DDF082EFBD72EDF8E
:1001D000949C8B9C949E8B8E94988B9894928B82FB
:1001E00048DF040E086EE60E096E0CDF082EFBD702
:1001F00094928B92FA0E096E05DF94928B82FA0E1E
:10020000096E00DF94928B92FA0E096EFBDE9492D7
:100210008B82FA0E096EF6DE94928B9294948B8404
:10022000030E086EFA0E096EEDDE082EFBD79494CD
:100230008B94949E8B9E0AEF0CF083A010D083A227
:100240000ED083A40CD083A60AD083B808D083BA7A
:1002500006D083BC04D083BE02D0075236E083A010
:1002600010D083A20ED083B40CD083B60AD083B84A
:1002700008D083BA06D083AC04D083AE02D0075234
:1002800024E083B010D083B20ED083A40CD083A618
:100290000AD083A808D083AA06D083BC04D083BE2A
:1002A00002D0075212E083B072D083B270D083B410
:1002B0006ED083B66CD083A86AD083AA68D083AC92
:1002C00066D083AE64D0075262E1B0DE94988B882A
:1002D000949A8B8ACEDE040E086EE60E096E92DECC
:1002E000082EFBD7949A8B9AFA0E096E8BDE949A9D
:1002F0008B8AFA0E096E86DE949A8B9AFA0E096E34
:1003000081DE949A8B8AFA0E096E7CDE949A8B9A1F
:10031000949C8B8C030E086EBE0E096E73DE082E45
:10032000FBD7949C8B9C82DE949E8B8E94988B98AA
:1003300094928B829EDE040E086EE60E096E62DEDB
:10034000082EFBD794928B92FA0E096E5BDE949284
:100350008B82FA0E096E56DE94928B92FA0E096E1B
:1003600051DE94928B82FA0E096E4CDE94928B923F
:1003700094948B84050E086E820E096E43DE082E5F
:10038000FBD794948B94949E8B9E0AEF0CF083A0E1
:1003900010D083A20ED083A40CD083A60AD083A849
:1003A00008D083BA06D083AC04D083BE02D00752F3
:1003B00036E083A010D083A20ED083A40CD083B6E5
:1003C0000AD083A808D083BA06D083AC04D083AE09
:1003D00002D0075224E083A010D083B20ED083A4B1
:1003E0000CD083A60AD083A808D083AA06D083ACF9
:1003F00004D083BE02D0075212E083A072D083B231
:1004000070D083A46ED083B66CD083A86AD083AA40
:1004100068D083AC66D083AE64D0075262E106DE5A
:1004200094988B88949A8B8A24DE040E086EE60ECC
:10043000096EE8DD082EFBD7949A8B9AFA0E096EA6
:10044000E1DD949A8B8AFA0E096EDCDD949A8B9A20
:10045000FA0E096ED7DD949A8B8AFA0E096ED2DDF8
:10046000949A8B9A949C8B8C030E086EBE0E096E28
:10047000C9DD082EFBD7949C8B9CD8DD949E8B8E77
:1004800094988B9894928B82F4DD040E086EE60E9D
:10049000096EB8DD082EFBD794928B92FA0E096E86
:1004A000B1DD94928B82FA0E096EACDD94928B9240
:1004B000FA0E096EA7DD94928B82FA0E096EA2DD08
:1004C00094928B9294948B84050E086E820E096E22
:1004D00099DD082EFBD794948B94949E8B9E0AEF03
:1004E0000CF083B010D083B20ED083A40CD083B6AE
:1004F0000AD083A808D083BA06D083AC04D083AED8
:1005000002D0075236E083A010D083B20ED083A46D
:100510000CD083A60AD083A808D083BA06D083BCA7
:1005200004D083BE02D0075224E083A010D083A25F
:100530000ED083A40CD083B60AD083B808D083BA77
:1005400006D083AC04D083AE02D0075212E083B051
:1005500072D083B270D083A46ED083B66CD083A8DF
:100560006AD083AA68D083AC66D083BE64D00752B9
:1005700062E15CDD94988B88949A8B8A7ADD040E14
:10058000086EE60E096E3EDD082EFBD7949A8B9A14
:10059000FA0E096E37DD949A8B8AFA0E096E32DDF7
:1005A000949A8B9AFA0E096E2DDD949A8B8AFA0E24
:1005B000096E28DD949A8B9A949C8B8C030E086E9E
:1005C000BE0E096E1FDD082EFBD7949C8B9C2EDD82
:1005D000949E8B8E94988B9894928B824ADD040E15
:1005E000086EE60E096E0EDD082EFBD794928B92F4
:1005F000FA0E096E07DD94928B82FA0E096E02DD07
:1006000094928B92FA0E096EFDDC94928B82FA0E14
:10061000096EF8DC94928B9294948B84050E086E8C
:10062000820E096EEFDC082EFBD794948B94949E77
:100630008B9E0AEF0CF083A010D083A20ED083A46F
:100640000CD083A60AD083A808D083AA06D083BC86
:1006500004D083AE02D0075236E083B010D083A21C
:100660000ED083A40CD083A60AD083A808D083AA76
:1006700006D083AC04D083AE02D0075224E083A01E
:1006800010D083A20ED083B40CD083A60AD083A846
:1006900008D083AA06D083AC04D083AE02D0075220
:1006A00012E083A072D083A270D083A46ED083A600
:1006B0006CD083B86AD083AA68D083AC66D083AE8E
:1006C00064D0075262E1B2DC94988B88949A8B8A4A
:1006D000D0DC040E086EE60E096E94DC082EFBD703
:1006E000949A8B9AFA0E096E8DDC949A8B8AFA0E84
:1006F000096E88DC949A8B9AFA0E096E83DC949AC0
:100700008B8AFA0E096E7EDC949A8B9A949C8B8C61
:10071000030E086EBE0E096E75DC082EFBD7949C86
:100720008B9C84DC949E8B8E94988B9894928B8275
:10073000A0DC040E086EE60E096E64DC082EFBD702
:1007400094928B92FA0E096E5DDC94928B82FA0E73
:10075000096E58DC94928B92FA0E096E53DC9492D7
:100760008B82FA0E096E4EDC94928B9294948B8459
:10077000050E086E820E096E45DC082EFBD7949498
:100780008B94949E8B9E0AEF0CF083B01CD083B2A6
:100790001AD083B418D083B616D083B814D083BAD5
:1007A00012D083BC10D083BE0ED007520CE13EDCC9
:1007B000949E8B8E94988B885CDC949E8B9E9498F0
:1007C0008B980AEF0CF083A010D083B20ED083B4C4
:1007D0000CD083B60AD083B808D083BA06D083BCC5
:1007E00004D083BE02D0075236E083B010D083B26B
:1007F0000ED083B40CD083B60AD083A808D083BAB5
:1008000006D083BC04D083BE02D0075224E083A06C
:1008100010D083A20ED083B40CD083B60AD083B894
:1008200008D083BA06D083BC04D083BE02D007525E
:1008300012E083A01DD083A21BD083B419D083B64D
:1008400017D083B815D083AA13D083BC11D083BE30
:100850000FD007520DE116EC00F094988B88949A13
:100860008B8A07DC94988B98949A8B9A0AEF0CF0F9
:1008700083B010D083B20ED083B40CD083B60AD02C
:1008800083A808D083AA06D083BC04D083BE02D03C
:10089000075224E083A010D083B20ED083B40CD0D2
:1008A00083B60AD083A808D083BA06D083BC04D00C
:1008B00083BE02D0075212E083A01ED083A21CD0B8
:1008C00083B41AD083B618D083A816D083BA14D0B4
:1008D00083BC12D083BE10D007520EE116EC00F09C
:1008E00094988B88949A8B8A39EC00F094988B9822
:1008F000949A8B9A0AEF0CF083A010D083A20ED0AA
:1009000083B40CD083B60AD083A808D083AA06D0BB
:1009100083BC04D083BE02D0075224E083A010D051
:1009200083B20ED083B40CD083B60AD083A808D08B
:1009300083AA06D083BC04D083BE02D0075212E043
:1009400083B01ED083A21CD083B41AD083B618D033
:1009500083A816D083AA14D083BC12D083BE10D033
:1009600007520EE116EC00F094988B88949A8B8ACB
:1009700039EC00F094988B98949A8B9A0AEF0CF0CB
:1009800083B010D083B20ED083A40CD083B60AD02B
:1009900083B808D083BA06D083BC04D083BE02D00B
:1009A000075224E083B010D083B20ED083B40CD0B1
:1009B00083B60AD083B808D083BA06D083AC04D0FB
:1009C00083BE02D0075212E083B01ED083B21CD087
:1009D00083A41AD083A618D083B816D083BA14D0B3
:1009E00083BC12D083BE10D007520EE116EC00F08B
:1009F000949E8B8E94928B8239EC00F0949E8B9E09
:100A000094928B920AEF0CF083B010D083B20ED088
:100A100083B40CD083B60AD083B808D083BA06D08A
:100A200083AC04D083AE02D0075224E083B010D050
:100A300083B20ED083A40CD083A60AD083B808D08A
:100A400083BA06D083AC04D083BE02D0075212E032
:100A500083B01ED083B21CD083A41AD083B618D022
:100A600083B816D083BA14D083AC12D083AE10D022
:100A700007520EE116EC00F0949E8B8E94928B82BE
:100A800039EC00F0949E8B9E94928B920AEF0CF0BE
:100A900083B010D083B20ED083A40CD083A60AD02A
:100AA00083B808D083BA06D083AC04D083AE02D01A
:100AB000075236E083B010D083B20ED083B40CD08E
:100AC00083A60AD083B808D083BA06D083AC04D0FA
:100AD00083AE02D0075224E083B010D083B20ED090
:100AE00083A40CD083A60AD083B808D083BA06D0DA
:100AF00083BC04D083AE02D0075212E083B01ED074
:100B000083B21CD083A41AD083B618D083B816D071
:100B100083BA14D083AC12D083BE10D007520EE13A
:100B200016EC00F0949E8B8E94928B8239EC00F040
:100B3000949E8B9E94928B920AEF0CF083A010D01F
:100B400083A20ED083A40CD083B60AD083B808D079
:100B500083BA06D083BC04D083BE02D0075224E0FF
:100B600083A010D083A20ED083B40CD083B60AD059
:100B700083B808D083BA06D083AC04D083BE02D039
:100B8000075212E083B07AD083B278D083A476D0B3
:100B900083B674D083A872D083AA70D083BC6ED081
:100BA00083BE6CD007526AE116EC00F094988B88F3
:100BB000949A8B8A39EC00F0090E086EFA0E096ED1
:100BC00002EC00F0082EFAD7949A8B9AFA0E096E6E
:100BD00002EC00F0949A8B8AFA0E096E02EC00F097
:100BE000949A8B9AFA0E096E02EC00F0949A8B8A12
:100BF000FA0E096E02EC00F0949A8B9A949C8B8CFE
:100C0000030E086EBE0E096E02EC00F0082EFAD735
:100C1000949C8B9C16EC00F0949E8B8E94988B98F1
:100C200094928B8239EC00F094928B92FA0E096EBA
:100C300002EC00F094928B82FA0E096E02EC00F046
:100C400094928B92FA0E096E02EC00F094928B82D1
:100C5000FA0E096E02EC00F094928B9294948B84BD
:100C6000030E086EC80E096E02EC00F0082EFAD7CB
:100C700094948B94949E8B9E0AEF0CF083B010D0CA
:100C800083B20ED083B40CD083B60AD083A808D028
:100C900083AA06D083AC04D083BE02D0075224E0DE
:100CA00083A010D083B20ED083A40CD083B60AD018
:100CB00083A808D083BA06D083BC04D083BE02D0F8
:100CC000075212E083A07AD083B278D083B476D072
:100CD00083B674D083A872D083BA70D083AC6ED040
:100CE00083BE6CD007526AE116EC00F094988B88B2
:100CF000949A8B8A39EC00F0090E086EFA0E096E90
:100D000002EC00F0082EFAD7949A8B9AFA0E096E2C
:100D100002EC00F0949A8B8AFA0E096E02EC00F055
:100D2000949A8B9AFA0E096E02EC00F0949A8B8AD0
:100D3000FA0E096E02EC00F0949A8B9A949C8B8CBC
:100D4000030E086EBE0E096E02EC00F0082EFAD7F4
:100D5000949C8B9C16EC00F0949E8B8E94988B98B0
:100D600094928B8239EC00F094928B92FA0E096E79
:100D700002EC00F094928B82FA0E096E02EC00F005
:100D800094928B92FA0E096E02EC00F094928B8290
:100D9000FA0E096E02EC00F094928B9294948B847C
:100DA000030E086EC80E096E02EC00F0082EFAD78A
:100DB00094948B94949E8B9E0AEF0CF083A010D099
:100DC00083A20ED083A40CD083B60AD083A808D007
:100DD00083AA06D083AC04D083BE02D0075224E09D
:100DE00083A010D083A20ED083A40CD083A60AD0F7
:100DF00083A808D083AA06D083AC04D083BE02D0D7
:100E0000075212E083A07AD083A278D083A476D050
:100E100083B674D083A872D083AA70D083AC6ED00E
:100E200083AE6CD007526AE116EC00F094988B8880
:100E3000949A8B8A39EC00F0090E086EFA0E096E4E
:100E400002EC00F0082EFAD7949A8B9AFA0E096EEB
:100E500002EC00F0949A8B8AFA0E096E02EC00F014
:100E6000949A8B9AFA0E096E02EC00F0949A8B8A8F
:100E7000FA0E096E02EC00F0949A8B9A949C8B8C7B
:100E8000030E086EBE0E096E02EC00F0082EFAD7B3
:100E9000949C8B9C16EC00F0949E8B8E94988B986F
:100EA00094928B8239EC00F094928B92FA0E096E38
:100EB00002EC00F094928B82FA0E096E02EC00F0C4
:100EC00094928B92FA0E096E02EC00F094928B824F
:100ED000FA0E096E02EC00F094928B9294948B843B
:100EE000030E086EC80E096E02EC00F0082EFAD749
:100EF00094948B94949E8B9E0AEF0CF083A010D058
:100F000083A20ED083B40CD083B60AD083A808D0B5
:100F100083AA06D083AC04D083AE02D0075224E06B
:100F200083A010D083A20ED083A40CD083A60AD0B5
:100F300083A808D083AA06D083BC04D083BE02D085
:100F4000075212E083A07AD083A278D083A476D00F
:100F500083B674D083A872D083AA70D083AC6ED0CD
:100F600083AE6CD007526AE116EC00F094988B883F
:100F7000949A8B8A39EC00F0090E086EFA0E096E0D
:100F800002EC00F0082EFAD7949A8B9AFA0E096EAA
:100F900002EC00F0949A8B8AFA0E096E02EC00F0D3
:100FA000949A8B9AFA0E096E02EC00F0949A8B8A4E
:100FB000FA0E096E02EC00F0949A8B9A949C8B8C3A
:100FC000030E086EBE0E096E02EC00F0082EFAD772
:100FD000949C8B9C16EC00F0949E8B8E94988B982E
:100FE00094928B8239EC00F094928B92FA0E096EF7
:100FF00002EC00F094928B82FA0E096E02EC00F083
:1010000094928B92FA0E096E02EC00F094928B820D
:10101000FA0E096E02EC00F094928B9294948B84F9
:10102000030E086EC80E096E02EC00F0082EFAD707
:1010300094948B94949E8B9E0AEF0CF083A010D016
:1010400083A20ED083A40CD083B60AD083A808D084
:1010500083BA06D083AC04D083BE02D0075212E01C
:1010600083A07AD083B278D083A476D083B674D0AC
:1010700083A872D083AA70D083AC6ED083BE6CD0AC
:1010800007526AE116EC00F094988B88949A8B8A48
:1010900039EC00F0090E086EFA0E096E02EC00F051
:1010A000082EFAD7949A8B9AFA0E096E02EC00F089
:1010B000949A8B8AFA0E096E02EC00F0949A8B9A3D
:1010C000FA0E096E02EC00F0949A8B8AFA0E096E01
:1010D00002EC00F0949A8B9A949C8B8C030E086E11
:1010E000BE0E096E02EC00F0082EFAD7949C8B9C81
:1010F00016EC00F0949E8B8E94988B9894928B8231
:1011000039EC00F094928B92FA0E096E02EC00F02A
:1011100094928B82FA0E096E02EC00F094928B92FC
:10112000FA0E096E02EC00F094928B82FA0E096EB0
:1011300002EC00F094928B9294948B84030E086ED0
:10114000C80E096E02EC00F0082EFAD794948B9426
:10115000949E8B9E0AEF0CF083A010D083A20ED039
:1011600083A40CD083B60AD083A808D083BA06D053
:1011700083BC04D083BE02D0075224E083A010D0E9
:1011800083B20ED083A40CD083B60AD083A808D033
:1011900083AA06D083AC04D083BE02D0075212E0EB
:1011A00083A079D083B277D083A475D083B673D06F
:1011B00083A871D083AA6FD083AC6DD083BE6BD06F
:1011C000075269E116EC00F094988B88949A8B8A08
:1011D00039EC00F0090E086EFA0E096E02EC00F010
:1011E000082EFAD7949A8B9AFA0E096E02EC00F048
:1011F000949A8B8AFA0E096E02EC00F0949A8B9AFC
:10120000FA0E096E02EC00F0949A8B8AFA0E096EBF
:1012100002EC00F0949A8B9A949C8B8C030E086ECF
:10122000BE0E096E02EC00F0082EFAD7949C8B9C3F
:1012300016EC00F0949E8B8E94988B9894928B82EF
:1012400039EC00F094928B92FA0E096E02EC00F0E9
:1012500094928B82FA0E096E02EC00F094928B92BB
:10126000FA0E096E02EC00F094928B82FA0E096E6F
:1012700002EC00F094928B9294948B84030E086E8F
:10128000C80E096E02EC00F0082EFAD794948B94E5
:10129000949E8B9EBFD283A010D083B20ED083B415
:1012A0000CD083A60AD083A808D083BA06D083BC0A
:1012B00004D083BE02D0075236E083B010D083B290
:1012C0000ED083A40CD083A60AD083B808D083BAEA
:1012D00006D083AC04D083BE02D0075224E083A0A2
:1012E00010D083B20ED083B40CD083B60AD083B8AA
:1012F00008D083BA06D083AC04D083AE02D00752A4
:1013000012E083B079D083B277D083B475D083B63E
:1013100073D083A871D083BA6FD083AC6DD083AE05
:101320006BD0075269E116EC00F0949E8B8E94927C
:101330008B8239EC00F0090E086EFA0E096E02EC91
:1013400000F0082EFAD794928B92FA0E096E02ECF6
:1013500000F094928B82FA0E096E02EC00F09492E7
:101360008B92FA0E096E02EC00F094928B82FA0EC8
:10137000096E02EC00F094928B9294948B84030E8D
:10138000086EBE0E096E02EC00F0082EFAD7949497
:101390008B9416EC00F094988B88949E8B9E949A74
:1013A0008B8A39EC00F0949A8B9AFA0E096E02EC53
:1013B00000F0949A8B8AFA0E096E02EC00F0949A6F
:1013C0008B9AFA0E096E02EC00F0949A8B8AFA0E50
:1013D000096E02EC00F0949A8B9A949C8B8C030E0D
:1013E000086EC80E096E02EC00F0082EFAD7949C25
:1013F0008B9C94988B980ED283A010D083A20ED091
:1014000083A40CD083A60AD083B808D083BA06D0B0
:1014100083AC04D083AE02D0075236E083B010D044
:1014200083B20ED083A40CD083A60AD083A808D0A0
:1014300083AA06D083AC04D083AE02D0075224E046
:1014400083A010D083A20ED083A40CD083A60AD090
:1014500083A808D083BA06D083AC04D083AE02D070
:10146000075212E083A079D083B277D083A475D0DD
:1014700083A673D083A871D083AA6FD083AC6DD0BC
:1014800083AE6BD0075269E116EC00F0949E8B8E10
:1014900094928B8239EC00F0090E086EFA0E096EF8
:1014A00002EC00F0082EFAD794928B92FA0E096E95
:1014B00002EC00F094928B82FA0E096E02EC00F0BE
:1014C00094928B92FA0E096E02EC00F094928B8249
:1014D000FA0E096E02EC00F094928B9294948B8435
:1014E000030E086EBE0E096E02EC00F0082EFAD74D
:1014F00094948B9416EC00F094988B88949E8B9E19
:10150000949A8B8A39EC00F0949A8B9AFA0E096EB1
:1015100002EC00F0949A8B8AFA0E096E02EC00F04D
:10152000949A8B9AFA0E096E02EC00F0949A8B8AC8
:10153000FA0E096E02EC00F0949A8B9A949C8B8CB4
:10154000030E086EC80E096E02EC00F0082EFAD7E2
:10155000949C8B9C94988B985DD183A010D083B27F
:101560000ED083A40CD083A60AD083A808D083BA57
:1015700006D083AC04D083AE02D0075236E083A0FD
:1015800010D083B20ED083A40CD083A60AD083A837
:1015900008D083BA06D083AC04D083BE02D00752F1
:1015A00024E083A010D083B20ED083A40CD083B6E5
:1015B0000AD083A808D083BA06D083AC04D083AE07
:1015C00002D0075212E083A079D083B277D083A4EF
:1015D00075D083A673D083B871D083BA6FD083AC33
:1015E0006DD083BE6BD0075269E116EC00F0949E7B
:1015F0008B8E94928B8239EC00F0090E086EFA0EF5
:10160000096E02EC00F0082EFAD794928B92FA0E33
:10161000096E02EC00F094928B82FA0E096E02ECD5
:1016200000F094928B92FA0E096E02EC00F0949204
:101630008B82FA0E096E02EC00F094928B929494D5
:101640008B84030E086EBE0E096E02EC00F0082EAD
:10165000FAD794948B9416EC00F094988B88949E0F
:101660008B9E949A8B8A39EC00F0949A8B9AFA0E9E
:10167000096E02EC00F0949A8B8AFA0E096E02EC65
:1016800000F0949A8B9AFA0E096E02EC00F0949A8C
:101690008B8AFA0E096E02EC00F0949A8B9A949C55
:1016A0008B8C030E086EC80E096E02EC00F0082E3B
:1016B000FAD7949C8B9C94988B98ACD083B010D024
:1016C00083B20ED083A40CD083B60AD083A808D0EE
:1016D00083BA06D083AC04D083AE02D0075212E0A6
:1016E00083B079D083B277D083A475D083A673D02A
:1016F00083A871D083BA6FD083BC6DD083BE6BD00A
:10170000075269E116EC00F0949E8B8E94928B82C6
:1017100039EC00F0090E086EFA0E096E02EC00F0CA
:10172000082EFAD794928B92FA0E096E02EC00F012
:1017300094928B82FA0E096E02EC00F094928B92D6
:10174000FA0E096E02EC00F094928B82FA0E096E8A
:1017500002EC00F094928B9294948B84030E086EAA
:10176000BE0E096E02EC00F0082EFAD794948B940A
:1017700016EC00F094988B88949E8B9E949A8B8A9A
:1017800039EC00F0949A8B9AFA0E096E02EC00F094
:10179000949A8B8AFA0E096E02EC00F0949A8B9A56
:1017A000FA0E096E02EC00F0949A8B8AFA0E096E1A
:1017B00002EC00F0949A8B9A949C8B8C030E086E2A
:1017C000C80E096E02EC00F0082EFAD7949C8B9C90
:1017D00094988B981FD0072C11D016EC00F0949C95
:1017E0008B8C94948B8439EC00F016EC00F0949C74
:1017F0008B9C94948B9439EC00F00CD016EC00F098
:10180000949E8B8E94988B8839EC00F0949E8B9EDE
:0A18100094988B9885EF00F0030018
:020000040030CA
:0E00000020001E1E008381000FC00FE00F4085
:00000001FF
;PIC18F4550
