:1000000000308A00172900000A108A100A1182079E
:1000100028340C34013406340A108A100A1182077D
:100020000C344D346F3464346534723465342034A8
:10003000763465346C346F346334693464346134D9
:10004000643400340A108A100A1182070C344334D5
:1000500061346C346C34653420346D346F346A34FC
:1000600061346434613400340A108A100A11820742
:100070004D34413458342034323435344B346D34BB
:100080002F346834723400340A108A100A1182073F
:100090000C344334723475346334653420346F3433
:1000A00062347334743472347534693464346F3444
:1000B0000034243084008313000803196D280130B4
:1000C000F800F701F70B6228F80B61284A30F700B7
:1000D000F70B68286B28800B5F2800342B0EF03953
:1000E000F7000F300805770488000000081478280E
:1000F000081000348810F030831688008312081529
:100100000000081400000808080E0F39AB000810A2
:100110000000081400000808080E0F39AA00081093
:1001200000308316880083122B0EF700F030F7059D
:1001300077082A04F8007808AA00AA1B7B28281C44
:100140008810281888140000081100000810290ED3
:10015000AA000F30AA052A08AB006E2029080F3923
:10016000AA00AB006E200034003083168800831292
:100170008810081108100F30A40059200130A20087
:100180002208033C031CCC280330AB006E20053052
:10019000A4005920A20AC0280230AB006E20A201A0
:1001A0002208033C031CDD2822080420A300A80128
:1001B0002308A9007A20A20AD0288A110A12342919
:1001C000250BE328E6284030A600E728A6010130E9
:1001D0002402A60726088038A700A8012708A9003E
:1001E0007A20003423080C3A0319FD28063A031933
:1001F0000529023A03190B291029A8010130A90089
:100200007A200230A400592016290130A4000230BF
:10021000A500E0201629A8011030A9007A2016298F
:100220000130A8002308A9007A201629003484018F
:1002300083131F308305A0152008831687008312BF
:100240002016200883168700D030930036308312A2
:10025000940083161F149F141F159F1107309C00D4
:10026000FF308312A000B4280630A4005920831662
:10027000141C9229141C3A2983121308A100210886
:10028000013A03194A29033A03195A29013A031971
:100290007A298A290130A400A500E020A2012208C1
:1002A0000C20A20AF700A300F22011302202031D45
:1002B0004F298A290130A400A500E020A2012208CC
:1002C0002220A20AF700A300F2200D302202031D13
:1002D0005F290130A4000230A500E020A20122081D
:1002E0003420A20AF700A300F2200B302202031DE3
:1002F0006F298A290130A400A500E020A20122086C
:100300004420A20AF700A300F22010302202031DAD
:100310007F298A290230A200FA30A4005920A20BBA
:080320008C29831638296300C3
:02400E00393F38
:00000001FF
;PIC16F877A
