:1000000000308A0061290000FF00030E8301A10077
:100010000A08A0008A010408A2007708A300780853
:10002000A4007908A5007A08A6007B08A70083131E
:1000300083120B1E1D288B183028220884002308E9
:10004000F7002408F8002508F9002608FA00270818
:10005000FB0020088A00210E8300FF0E7F0E09009E
:100060008A110A1288280A108A100A118207283475
:100070000C34013406340A108A100A1182070C3439
:100080004D346F34643465347234653420347634DE
:1000900065346C346F34633469346434613464348B
:1000A00000340A108A100A1182070C344334613478
:1000B0006C346C34653420346D346F346A3461349C
:1000C0006434613400340A108A100A1182074D34F6
:1000D000413458342034323435344B346D342F3479
:1000E0006834723400340A108A100A1182070C3402
:1000F0004334723475346334653420346F3462347D
:100100007334743472347534693464346F34003445
:10011000A908031D96280130A900831686108312B2
:10012000861483160611831206159F28A9018316CB
:1001300086108312861083160611831206118B1007
:100140008A110A121D282D30840083130008031918
:10015000B7280130F800F701F70BAC28F80BAB28F3
:100160004A30F700F70BB228B528800BA9280034D5
:10017000340EF039F7000F300805770488000000CE
:100180000814C228081000348810F0308316880044
:10019000831208150000081400000808080E0F3923
:1001A000B40008100000081400000808080E0F39F9
:1001B000B30008100030831688008312340EF70055
:1001C000F030F70577083304F8007808B300B31B64
:1001D000C528311C8810311888140000081100004F
:1001E0000810320EB3000F30B3053308B400B82046
:1001F00032080F39B300B400B82000340030831641
:10020000880083128810081108100F30AD00A32059
:100210000130AB002B08033C031C16290330B4004B
:10022000B8200530AD00A320AB0A0A290230B40083
:10023000B820AB012B08033C031C27292B083320D3
:10024000AC00B1012C08B200C420AB0A1A298A11F3
:100250000A127F292E0B2D2930294030AF00312979
:10026000AF0101302D02AF072F088038B000B10177
:100270003008B200C42000342C080C3A0319472976
:10028000063A03194F29023A031955295A29B1018F
:100290000130B200C4200230AD00A320602901303B
:1002A000AD000230AE002A216029B1011030B20049
:1002B000C42060290130B1002C08B200C42060299C
:1002C0000034840183131F308305A8152808831682
:1002D000870083122816280883168700A030930011
:1002E00036308312940083161F149F141F159F111C
:1002F00007309C00FF308312A800A901FE280630B9
:10030000AD00A32083160117D03083128B04013077
:1003100083168600861083128610831606118312B8
:1003200006118316141CE529141C94298312130842
:10033000AA002A08013A0319A429033A0319B42987
:10034000013A0319D429E4290130AD00AE002A2175
:10035000AB012B083B20AB0AF700AC003C2111306D
:100360002B02031DA929E4290130AD00AE002A218A
:10037000AB012B085120AB0AF700AC003C210D303B
:100380002B02031DB9290130AD000230AE002A2135
:10039000AB012B086320AB0AF700AC003C210B300B
:1003A0002B02031DC929E4290130AD00AE002A212A
:1003B000AB012B087320AB0AF700AC003C211030D6
:0E03C0002B02031DD929E4298316922963001C
:02400E00393F38
:00000001FF
;PIC16F877A
